:020000023000CC
:10FC000001C0F2C0112484B790E890936100109273
:10FC10006100882369F0982F9A70923049F081FF33
:10FC200002C097EF94BF282E80E025D10C940000ED
:10FC300085E08093810082E08093C00088E180931A
:10FC4000C10080E18093C40086E08093C2008EE012
:10FC500012D1279A84E020E33CEF91E030938500B5
:10FC60002093840096BBB09BFECF1F9AA89540912D
:10FC7000C00047FD02C0815089F75DEDE52E54E0DC
:10FC8000F52EEDD08F3FA9F4EAD0C82FE8D09C2FF5
:10FC900083529B4F8E9DE0018F9DD00D9E9DD00D78
:10FCA00011248FEFD5D08D2FD3D08C2FD1D0E9D088
:10FCB0000EC0813479F4D3D0C82FE3D0C23811F408
:10FCC00080E004C088E0C13809F083E0C1D080E161
:10FCD000BFD0D7CF823419F484E1DBD0F8CF85349C
:10FCE00011F485E0FACF853579F4B9D0082FB7D073
:10FCF000182F87FF06C08BB781608BBF000F111FC5
:10FD0000D6CF8BB78E7FF9CF863579F4A8D08D34D6
:10FD100051F4A5D0CBB7A3D0C170880F8C2B8BBF6B
:10FD200081E0B7D0CDCF83E0FCCF843609F03AC074
:10FD300096D0C82FD0E0DC2FCC2791D0C82B8FD005
:10FD4000782E6E018EEFD81A812C32E0932E54015A
:10FD5000EFEFAE1ABE0A83D0F40180834501AC14E4
:10FD6000BD04A9F78ED0F5E47F1201C0FFCF50E0AB
:10FD700040E063E0C80138D06801A12C92E0B92EC0
:10FD8000F501419151915F0161E0C6012DD0F2E092
:10FD9000CF0ED11C2297A1F750E040E065E0C801EA
:10FDA00023D095CF843789F45AD0C82FD0E0DC2FE8
:10FDB000CC2755D0C82B53D064D06801F601879169
:10FDC0006F0146D02197D1F782CF853739F459D0CA
:10FDD0008EE13ED088E93CD081E078CF813509F0D2
:10FDE00066CF88E048D063CFFC010A0167BFE89581
:10FDF000112407B600FCFDCF667029F0452B19F4DD
:10FE000081E187BFE89508959C01029760F040EA80
:10FE10005FE0249FC001259F900D349F900D112419
:10FE200005970197F1F708956F9A779A8BE794E811
:10FE3000FC013197F1F77798FC013197F1F7779A48
:10FE4000FC013197F1F777980197F1F7779A0895C8
:10FE50009091C00095FFFCCF8093C60008958091DB
:10FE6000C00087FFFCCF8091C00084FD01C0A89531
:10FE70008091C6000895E0E6F0E098E190838083E9
:10FE80000895EDDF803219F088E0F5DFFFCF84E1DF
:10FE9000DFCFCF93C82FE3DFC150E9F7CF91F1CF88
:02FFFE000008F9
:040000033000FC00CD
:00000001FF
