:020000021000EC
:10FC000001C0EBC011248FEF90E19EBF8DBF84B780
:10FC1000882369F0982F9A70923049F081FF02C0D2
:10FC200097EF94BF282E80E0F6D00C94000085E07A
:10FC30008EBD82E08BB988E18AB980E189B986E01E
:10FC4000809395008EE0E7D0129A84E040E35CEF69
:10FC500024E05DBD4CBD26BF06B602FEFDCF93B1CC
:10FC6000922793B9A8955F9902C0815091F75DEDF5
:10FC7000E52E54E0F52EC8D08F3FA9F4C5D0C82F8B
:10FC8000C3D09C2F83529B4F8E9DE0018F9DD00D42
:10FC90009E9DD00D11248FEFB3D08D2FB1D08C2F1E
:10FCA000AFD0BDD00EC0813479F4AED0C82FB7D05C
:10FCB000C23811F480E004C088E0C13809F083E064
:10FCC0009FD080E19DD0D7CF823419F484E1AFD0AA
:10FCD000F8CF853411F485E0FACF853579F494D0E6
:10FCE000082F92D0182F87FF06C08BB781608BBF7B
:10FCF000000F111FD6CF8BB78E7FF9CF863579F4E1
:10FD000083D08D3451F480D0CBB77ED0C170880FB2
:10FD10008C2B8BBF81E08BD0CDCF83E0FCCF8436A2
:10FD200009F039C071D0C82FD0E0DC2FCC276CD0BF
:10FD3000C82B6AD0782E6E01D394812C9924939489
:10FD40005401EFEFAE1ABE0A5FD0F4018083450183
:10FD5000AC14BD04A9F763D0F5E47F1201C0FFCF56
:10FD600050E040E063E0C80138D06801A12CBB241A
:10FD7000B394F501419151915F0161E0C6012DD02D
:10FD8000F2E0CF0ED11C2297A1F750E040E065E0F1
:10FD9000C80123D096CF843789F436D0C82FD0E05D
:10FDA000DC2FCC2731D0C82B2FD039D06801F601F9
:10FDB00087916F0125D02197D1F783CF853739F40B
:10FDC0002ED08EE11DD087E91BD082E079CF81351E
:10FDD00009F067CF88E01FD064CFFC010A0160936F
:10FDE0006800E89511248091680080FDFCCF667062
:10FDF00031F0452B21F481E180936800E895089566
:10FE00005D9BFECF8CB908955F9BFECF5C9901C0CE
:10FE1000A8958CB1089598E191BD81BD0895F4DF56
:10FE2000803219F088E0F7DFFFCF84E1E9CFCF938C
:0CFE3000C82FEADFC150E9F7CF91F1CFF5
:02FFFE000008F9
:040000031000FC00ED
:00000001FF
